:020000040800F2
:10000000C80700204D020008431A00082118000804
:10001000411A0008B1060008F11D000800000000A8
:10002000000000000000000000000000471A000867
:100030001507000800000000451A0008491A0008CA
:1000400067020008670200086702000867020008EC
:1000500067020008670200086702000867020008DC
:1000600067020008670200086702000867020008CC
:1000700067020008670200086702000867020008BC
:1000800067020008670200086702000867020008AC
:10009000670200086702000867020008670200089C
:1000A000670200086702000867020008670200088C
:1000B000670200086702000867020008670200087C
:1000C000670200086702000867020008670200086C
:1000D00067020008D91D0008E51D00086702000836
:1000E000670200086702000867020008670200084C
:1000F000670200086702000867020008670200083C
:10010000670200086702000867020008670200082B
:10011000670200086702000867020008670200081B
:10012000670200086702000867020008670200080B
:1001300067020008670200086702000867020008FB
:1001400067020008670200086702000867020008EB
:1001500067020008670200086702000867020008DB
:1001600067020008670200086702000867020008CB
:10017000670200086702000867020008000000002C
:1001800067020008670200086702000867020008AB
:10019000670200086702000867020008670200089B
:1001A00067020008670200086702000800F002F812
:1001B00000F03CF80AA090E8000C82448344AAF1C5
:1001C0000107DA4501D100F031F8AFF2090EBAE8C3
:1001D0000F0013F0010F18BFFB1A43F0010318477B
:1001E000CC1D0000EC1D0000103A24BF78C878C177
:1001F000FAD8520724BF30C830C144BF04680C602D
:10020000704700000023002400250026103A28BF74
:1002100078C1FBD8520728BF30C148BF0B60704778
:100220001FB501F0B1FE1FBD10B510BD00F0F1F813
:100230001146FFF7F5FF01F0EDFD00F00FF903B4F3
:10024000FFF7F2FF03BC00F013F9000009488047F4
:1002500009480047FEE7FEE7FEE7FEE7FEE7FEE7A8
:10026000FEE7FEE7FEE7FEE704480549054A064BC0
:1002700070470000E91A0008AD010008C80100201D
:10028000C8070020C8030020C803002053EA020C5E
:1002900000F069802DE9F04B4FF00006002B1FBFE6
:1002A000B3FA83F503FA05F424FA05F65E4012BFAB
:1002B0001643B2FA82F502FA05F4C5F120051EBF15
:1002C00022FA05FC44EA0C04203556EA044C4FEAB5
:1002D000144418BF641C4FF000084FF0000990420E
:1002E00071EB030C39D3002919BFB1FA81F701FA78
:1002F00007F6B0FA80F700FA07F6C7F120071EBF2D
:1003000020FA07FC46EA0C062037B6FBF4FCA7EB04
:100310000507103F07F01F0BCBF120060CFA0BFB73
:100320002CFA06F644BFB3460026202FA4BF5E4633
:100330004FF0000B5BEA060C08BF4FF0010B19EB06
:100340000B09ABFB027C48EB0608C01B06FB02CC8A
:100350000BFB03CC71EB0C01C1E70B460246414697
:100360004846BDE8F08B13B54FF000004FF0000198
:10037000AFF30080BDE81C4070474FF00002042935
:10038000C0F0128010F0030C00F01B80CCF1040CC4
:10039000BCF1020F18BF00F8012BA8BF20F8022BF8
:1003A000A1EB0C0100F00DB85FEAC17C24BF00F89E
:1003B000012B00F8012B48BF00F8012B70474FF0CC
:1003C000000200B5134694469646203922BFA0E8A5
:1003D0000C50A0E80C50B1F12001BFF4F7AF0907B1
:1003E00028BFA0E80C5048BF0CC05DF804EB8900A2
:1003F00028BF40F8042B08BF704748BF20F8022BE5
:1004000011F0804F18BF00F8012B704770477047FC
:100410007047754600F028F8AE4605006946534619
:1004200020F00700854618B020B5FFF71DFFBDE896
:1004300020404FF000064FF000074FF000084FF04B
:10044000000B21F00701AC46ACE8C009ACE8C009DC
:10045000ACE8C009ACE8C0098D4670470446AFF36C
:1004600000802046FFF7EBFE00487047680100203F
:1004700001491820ABBEFEE72600020070470000CD
:100480002DE9F05F834C844FA6154FF400750028CA
:100490007ED0DFF80882DFF80892DFF808B2012882
:1004A0004FF000024FF0010173D0584600F0BCFB42
:1004B00000220821404600F0B7FB002204214046FC
:1004C00000F0B2FB00220221404600F0ADFB00220A
:1004D0000121404600F0A8FB00222115484600F00B
:1004E000A3FB00226115484600F09EFB0022A115E7
:1004F000484600F099FB002201216B4800F094FB74
:1005000000222021404600F08FFB002210214046AF
:1005100000F08AFB00228021584600F085FB002273
:100520004021584600F080FB002220214FEA0B00BA
:1005300000F07AFB002208215B4800F075FB4FF4C5
:10054000004A00225146B846384600F06DFB4FF491
:10055000804900224946404600F066FB4FF40055B2
:1005600000222946404600F05FFB6E100022314613
:10057000404600F059FBAF1000223946404600F0DB
:1005800053FB00220221204600F04EFB002201E036
:1005900039E04BE00121204600F046FB0022291102
:1005A000414800F041FB002269113F4800F03CFB4C
:1005B000002280213C4800F037FB002240213A48CD
:1005C00000F032FB00220421404600F02DFB374CA6
:1005D00000225146204600F027FB002249462046D3
:1005E00000F022FB00222946204600F01DFB0022DD
:1005F0003146204600F018FB002239462046BDE86F
:10060000F05F00F011BB00222946204600F00CFBF1
:1006100000223146204600F007FB002280212046C0
:1006200000F002FB002202213846E8E7404600F0D5
:10063000FBFA00224FF48061484600F0F5FA0022F0
:100640004FF40071484600F0EFFA00224FF4807139
:10065000484600F0E9FA00220121134800F0E4FACC
:1006600000222021404600F0DFFA002210214046FF
:1006700000F0DAFA002280215D46584600F0D4FAF4
:1006800000224021284600F0CFFA002220212846EF
:100690004EE700000010024000180240000802402F
:1006A000001402400000024000040240000C02401E
:1006B000FEE7000070B5144CA088010411D4134962
:1006C00043044FF000050A7815D5214663788988E0
:1006D000C1F30B0133B10E4D401C5B1E6A54A08068
:1006E000637070BDC12A03D00948FFF746FE04E0DD
:1006F00040F4004005E0C02A01D0A58070BD40F460
:100700008040A08070BD0000000000200600002096
:1007100018000020704772B6FEE700002DE9F05F78
:100720000C460546FFF7ACFE4FF400717C4EDFF837
:10073000F4814F10EDB1012D6FD17B487B4D7C4B87
:100740004FF4806C4FF400494FF4804A4FF4005B43
:10075000192C62D2DFE804F0E12128303940484FFB
:1007600058626A727A828990989FA6ADB5BDC5CD50
:10077000D500012C08D0022C08D0032C0AD0042C60
:100780004BD10122022146E0012201E0012239463B
:100790003046BEE001228021FAE70122114600F036
:1007A00043FA012211462DE001221146044600F0D1
:1007B0003BFA0122202106E001221146044600F006
:1007C00033FA012210212046A3E00122114600F055
:1007D0002BFA0122802105E00122114600F024FAC3
:1007E00001224021284694E00122114600F01CFA23
:1007F00001222021F6E701226146184600F014FA92
:10080000012208214B4884E001226146184600F08D
:100810000BFA0122494640467BE07EE00122614618
:10082000184600F001FA01225146F4E70122614620
:10083000184600F0F9F901225946ECE70122614619
:10084000184600F0F1F901221103E4E701226146A4
:10085000184600F0E9F90122D102DCE7012218462E
:1008600000F0E2F90122022192E70122184600F08D
:10087000DBF9012211468BE701220C46184600F0F5
:10088000D3F901222146BDE70122184600F0CCF938
:1008900001223946B6E70122184600F0C5F90122C7
:1008A0008021AFE70122184600F0BEF90122402165
:1008B000A8E701223946184600F0B6F901220421C2
:1008C000A9E701223946184600F0AEF9012249464F
:1008D0001EE001223946184600F0A6F901225146D1
:1008E00016E001223946184600F09EF901225946C9
:1008F0000EE001223946184600F096F90122110354
:1009000006E001223946184600F08EF90122D10294
:100910000948BDE8F05F00F087B9BDE8F09F00002E
:10092000001002400018024000080240000002408F
:100930000014024000040240000C02402DE9F04186
:100940000446876D00F076F9064694F835000025D8
:10095000022806D08020606584F834500120BDE86C
:10096000F0812068016821F016010160206841696A
:1009700021F080014161206C08B9A06C20B1206891
:10098000016821F0080101602068016821F001017F
:1009900001600CE000F04EF9801B052807D92020EB
:1009A0006065032084F8350084F83450D7E7206868
:1009B0000068C007EED194F85C103F208840B86012
:1009C000012084F8350084F834500020C7E790F8FF
:1009D0003510022903D0802141650120704705218F
:1009E00080F835100068016821F0010101600020E5
:1009F000704700002DE9F84FDFF8F8A1002201242C
:100A000003254FF00F090AF1040BAAF1040E00BFF1
:100A10000B6804FA02F63340B34270D10F7907F045
:100A20000307012F01D0022F16D187684FEA420831
:100A300005FA08FC27EA0C07D1F80CC00CFA08FCF0
:100A40004CEA070CC0F808C04768B7430E79C6F3F4
:100A5000001696403E4346600E79F643B6070AD02C
:100A6000C7684FEA420C05FA0CF6B7438E6806FADF
:100A70000CF63E43C6600E7906F00306022E10D136
:100A8000D60800EB8608D8F8206057074FEAD76CE5
:100A900009FA0CF7BE430F6907FA0CF73743C8F899
:100AA000207006684FEA420C05FA0CF7BE430F7936
:100AB00007F0030707FA0CF7374307604E6816F490
:100AC000403F1CD04C4E376847F48047376036684B
:100AD00022F0030706F480460096484E07EB060C0A
:100AE000DCF8086897073F0F09FA07F826EA0806B6
:100AF000DFF80C81404503D14FF0000841E072E07F
:100B0000DFF80081404502D14FF0010839E0DFF8FD
:100B1000F880404502D14FF0020832E0DFF8EC8067
:100B2000404502D14FF003082BE0DFF8E480404558
:100B300002D14FF0040824E0DFF8D880404502D10C
:100B40004FF005081DE0DFF8D080404502D14FF09E
:100B5000060816E0DFF8C480404502D14FF00708D0
:100B60000FE0DFF8BC80404502D14FF0080808E0F4
:100B7000DFF8B080404502D14FF0090801E04FF0A6
:100B80000A0808FA07F848EA0608CCF80888DAF8EC
:100B900000605746D1F804C09E435FEACC2C00D5D4
:100BA0001E433E60DBF800605F46D1F804C09E4300
:100BB0005FEA8C2C00D51E433E60DEF8006077466D
:100BC000D1F804C09E435FEA8C3C00D51E433E60D2
:100BD000084F083F3E68D1F804C09E435FEACC3C12
:100BE00000D51E433E60521C102AFFF411AFBDE831
:100BF000F88F0000083C01404438024000300140BA
:100C0000000002400004024000080240000C0240C4
:100C1000001002400014024000180240001C024074
:100C200000200240002402400AB18161704709049B
:100C3000FBE70000014880687047000008000020C2
:100C400002488168027811448160704708000020E2
:100C50000B4810B5016841F400710160016841F46E
:100C600080610160016841F480710160032000F03F
:100C700071F8032000F006F800F024F8002010BD01
:100C8000003C024070B50D4D04464FF47A7128784F
:100C9000B1FBF0F00A490968B1FBF0F000F046FB47
:100CA00048B9102C07D200222146501E00F032F81D
:100CB00000206C6070BD012070BD000008000020A5
:100CC000140000200B4882B0016841F480410160AB
:100CD000006800F4804000900648001F016841F061
:100CE00080510160006800F080500090052002B043
:100CF00000F030B844380240002809DB00F01F0241
:100D0000012191404009800000F1E020C0F800116D
:100D100070470000F0B40E4B1B680C46C3F302236F
:100D2000C3F10705042D00D90425191D072901D297
:100D3000002300E0DB1E012606FA05F1491E2140D2
:100D400099409E40761E16403143F0BC01F051B8E8
:100D50000CED00E0064900F0070208684FF6FF03BB
:100D6000184040EA0220034A104308607047000020
:100D70000CED00E00000FA052DE9F8431748016882
:100D800041F0805101600068154F00F0805001264D
:100D900000903E64FFF74EFF05464FF47A78114C01
:100DA00005E000BFFFF746FF401B40450DD86068D7
:100DB000C003F7D57E64FFF73DFF0546464607E0D2
:100DC000FFF738FF401BB04202D90320BDE8F8838B
:100DD00060688003F4D50020F8E700004038024046
:100DE00000000E42007000402DE9F0470E4605005D
:100DF00065D0DFF81481D8F80000F7B200F00F00DA
:100E0000B04207D288F80070D8F8000000F00F0058
:100E1000B04254D128683D4C810712D5400703D514
:100E2000206840F4E05020602878000703D520684F
:100E300040F4604020602068A96820F0F00008437A
:100E400020602878C0072DD030496868083901280B
:100E500012D0022813D0032811D00968890700296D
:100E60002DDA216821F0030101432160FFF7E2FE42
:100E7000814641F2883A0EE009688903EFE7096884
:100E80008901ECE7FFF7D6FEA0EB0901514502D935
:100E90000320BDE8F0872068696800F00C00B0EB23
:100EA000810FEFD1D8F80010404601F00F01B14298
:100EB00007D90770006800F00F00B04201D0012090
:100EC000E7E72878400705D52068E96820F4E05076
:100ED000084320602878000706D52068296920F497
:100EE000604040EAC100206000F038F82168084AFC
:100EF000C1F30311515CC840064908600648006808
:100F0000FFF7C0FE0020C4E7003C02400838024062
:100F1000921F0008140000200C000020044805491E
:100F200000680968044AC1F38221515CC8407047D7
:100F30001400002008380240A21F00080448054998
:100F400000680968044AC1F34231515CC8407047E7
:100F50001400002008380240A21F0008154810B5F0
:100F6000006810F00C02144813D01449042A0FD062
:100F7000082A0ED10F4C241F2268236802F03F027A
:100F80005B0207D52068C0F38810A0FB010106E0D2
:100F9000084610BD2168C1F38811A1FB00010023A0
:100FA000FFF774F92168C1F30141491C4900B0FB06
:100FB000F1F010BD083802400024F40040787D01B3
:100FC0002DE9F84F04006ED02078DFF84C93C0076D
:100FD000A9F104054AD009F104000168C1F38101B7
:100FE000012908D00068C0F3810002280AD1D9F88D
:100FF0000000400206D52868800337D560680028C5
:10100000E1D033E06068B0F5803F10D0B0F5A02F9C
:10101000286810D020F480302860286820F48020D0
:1010200028606068A8B1FFF705FE06460DE0286855
:1010300040F48030F4E740F480202860F7E700BFF8
:10104000FFF7F8FD801B642873D828688003F7D564
:101050000CE0FFF7EFFD064605E000BFFFF7EAFDF5
:10106000801B6428F0D828688003F7D42078DFF844
:10107000AC8280074FF0000A3ED5A748001D0168EA
:1010800011F00C0F08D00068C0F3810002280BD1CA
:10109000D9F80000400207D42868800716D5E06818
:1010A000012800D112E033E1E068B8B10120C8F8AE
:1010B0000000FFF7BFFD064605E000BFFFF7BAFDE1
:1010C000801B0228C0D828688007F7D528682169C6
:1010D00020F0F80040EAC10028600DE0C8F800A048
:1010E000FFF7A8FD064604E0FFF7A4FD801B0228D9
:1010F0001FD828688007F7D42078000722D5864FAC
:1011000087486169703771B101210160FFF792FD75
:10111000064604E0FFF78EFD801B022809D83868D8
:101120008007F7D50EE0C0F800A0FFF783FD064664
:1011300005E082E0FFF77EFD801B02287DD838683D
:101140008007F7D42078400768D5DFF8CCB10027B6
:101150000BF13C0BDBF80000C0000BD4DBF80010F7
:1011600041F08051CBF80010DBF80000012700F0BF
:10117000805000906B4E3068C00510D4306840F449
:1011800080703060FFF756FD009005E0FFF752FDDC
:101190000099401A022850D83068C005F6D55E4E36
:1011A000A0686C3601280FD00528306810D020F0D8
:1011B00001003060306820F004003060A068B8B1F1
:1011C000FFF738FD00900FE0306840F00100F4E7D1
:1011D00040F004003060F7E7FFF72CFD0099411A5A
:1011E00041F28830814266D830688007F4D50EE03D
:1011F000FFF720FD009007E0FFF71CFD0099411A62
:1012000041F28830814256D830688007F4D42FB13B
:10121000DBF8001021F08051CBF80010A069C8B3B2
:101220003D49091D0968C1F3810102294AD00228FC
:10123000504607D0C8F8600000E03CE0FFF7FAFC39
:1012400004463BE04746C8F86000FFF7F3FC06465B
:1012500005E000BFFFF7EEFC801B02282BD82868B2
:101260008001F7D4D4E907010843A16A2E4A49084E
:1012700002EB0141626A41EA8211084394F82C10A2
:1012800040EA0161C9F8001001203866FFF7D2FC7E
:10129000044606E03EE000BFFFF7CCFC001B02283E
:1012A00009D828688001F7D534E000BFFFF7C2FCF9
:1012B000001B022802D90320BDE8F88F28688001AE
:1012C000F4D427E00128F7D0D9F80000E26900F44F
:1012D000800191421CD1226A00F03F01914217D156
:1012E00047F6C071626A0140B1EB821F10D1A26A59
:1012F0004FF0FF3300F4403103EB5202B1EB024FE9
:1013000006D194F82C1000F07060B0EB016F01D0A2
:101310000120D1E70020CFE7043802400000474217
:10132000800E4742007000400000FFFF10B5401ED5
:10133000B0F1807F01D3012010BD4FF0E024606147
:101340000F21601700F055FD0020A06107202061EB
:10135000002010BD70477047F8B501680446086862
:10136000CA684B6910F00F0F4FF000055AD003F018
:10137000010602F49077374365D0C10705D0D10547
:1013800003D5216C41F001012164410705D5D9073E
:1013900003D0216C41F002012164810705D5D907F2
:1013A00003D0216C41F004012164010707D502F04C
:1013B0002001314303D0216C41F008012164216CEC
:1013C00000293BD0800604D5900602D5204600F0C7
:1013D000C2FB20684069216CC0F3801001F0080155
:1013E000014320462BD000F08FFB20684069400667
:1013F00021D52068143050E8001F21F0400140E85A
:101400000012002AF5D1A06BA8B16C490165A06B50
:10141000FFF7DDFA002811D0A06B016D01B0BDE827
:10142000F040084783060ED593060CD52046BDE84C
:10143000F84000F090BB2046FFF78DFFF8BDFFF7A6
:101440008AFF2564F8BD266B2023012E79D1C606BC
:1014500077D5D60675D50868486800904869400673
:1014600040D5A16B086840680004000CEAD0A28D4A
:101470008242E7D9E085C869B0F5807F2DD0206829
:101480000C3050E8001F21F4807140E80012002A5F
:10149000F5D12068143050E8001F21F0010140E828
:1014A0000012002AF5D12068143050E8001F21F006
:1014B000400140E80012002AF5D184F83E3025634F
:1014C00020680C3050E8001F21F0100140E80012A5
:1014D000002AF5D1A06BFFF731FAA08DE18D401AFB
:1014E00081B229E0A08DE18D401A81B2E08D002803
:1014F000A8D00029A6D020680C3050E8002F22F494
:10150000907240E80026002EF5D12068143050E893
:10151000002F22F0010240E80026002EF5D184F8C9
:101520003E30256320680C3050E8002F22F0100276
:1015300040E80023002BF5D12046FFF70BFFF8BD54
:10154000FFE705062BD5150629D594F83D0021287F
:10155000F5D1A068B0F5805F01D12069B0B1206AF3
:10156000411C2162216800784860E08C401E000424
:10157000000CE084E3D12068C16821F08001C160E3
:101580002068C16841F04001C160D8E7206A008846
:10159000C0F308004860206A801C2062E5E740062E
:1015A000CDD55006CBD5CA68204622F04002CA608D
:1015B00084F83D3000F033F9C1E70000F91A000863
:1015C00070B5040004D094F83D00002510B106E089
:1015D000012070BD84F83C50204600F023F8242000
:1015E00084F83D002068C16821F40051C1602046A4
:1015F00000F012FB2068016921F49041016120682C
:10160000416921F02A0141612068C16841F400511B
:10161000C1602564202084F83D0084F83E0000204D
:1016200070BD0000F0B587B0044614216846FEF78F
:10163000C6FE2A4F236800222949022403250726D3
:101640002848BB4221D1264B14331F6847F01007AE
:101650001F601B6803F0100305930B6843F0010340
:101660000B60096802AB01F0010105916902CDE947
:10167000001483E864006946FFF7BCF901221146B3
:101680002520FFF747FB252023E0174FBB4222D13F
:10169000134B10331F6847F400371F601B6803F4B7
:1016A000003305930B6843F001030B60096802AB3C
:1016B00001F0010105910C21CDE9001483E86400DB
:1016C0006946FFF797F9002201212620FFF722FB48
:1016D0002620FFF711FB07B0F0BD0000001001400D
:1016E00030380240000002400044004090F83E3094
:1016F000202B0ED159B152B190F83C30012B08D0BB
:10170000012380F83C300023036300F00BBB012071
:10171000704702207047000010B500680D4A0E495E
:10172000904207D100208870FEF7C4FF01220B49C8
:101730000B4809E00B4A90420AD101208870FEF75D
:10174000B9FF064908480122BDE81040FFF7CEBFA7
:1017500010BD000000100140000000200600002025
:10176000E000002000440040240100202DE9F8435F
:10177000044690F83D001F4616460D4620284CD1E1
:10178000C5B1BEB194F83C00012846D0012084F8D0
:101790003C004FF00008C4F84080212084F83D0050
:1017A000FFF748FAA6848146E684A068B0F5805F1A
:1017B00003D004E00120BDE8F883206928B12E465B
:1017C0005FF0000584F83C800EE00026FAE78021F7
:1017D000204600F0C4FAA0B9AEB116F8010B21689A
:1017E0004860E08C401EE084E08C4B464FF00002E5
:1017F00000970028EBD14FF04001204600F0AFFAEF
:1018000030B10320D7E735F8020BC0F30800E6E754
:10181000202084F83D000020CDE70220CBE7704770
:10182000FEE700002DE9F04F87B014216846FEF76F
:10183000C6FD59480024016841F0040101600168B7
:1018400001F004010591016841F020010160016887
:1018500001F020010591016841F0800101600168FB
:1018600001F080010591016841F00101016001680A
:1018700001F001010591016841F002010160016878
:1018800001F002010591016841F040010160016829
:1018900001F040010591016841F01001016001680B
:1018A00001F010010591016841F008010160006834
:1018B000DFF8E8A000F008004FF4E0650590002292
:1018C00029465046FFF7B0F9DFF8D4B000223F2197
:1018D0005846FFF7A9F90022E1213248FFF7A4F9A1
:1018E00040F2C936002231462F48FFF79DF94FF6E6
:1018F0000607002239462D48FFF796F940F2833853
:10190000002241462A48FFF78FF94FF47849002218
:1019100049462848FFF788F900950125CDE901548B
:10192000694650460394FFF765F83F200090CDE9E3
:101930000154694658460394FFF75CF8E120009093
:10194000CDE90154694617480394FFF753F8009610
:10195000CDE90154694614480394FFF74BF800970A
:10196000CDE90154694611480394FFF743F8CDF8D7
:101970000080CDE9015469460D480394FFF73AF819
:10198000CDF80090CDE9015469460A480394FFF769
:1019900031F807B0BDE8F08F303802400014024043
:1019A000000802400000024000040240001802400B
:1019B00000100240000C02400E4810B50C490160B6
:1019C0004FF4E1314160002181600C22C160C0E927
:1019D00004128161C161FFF7F3FD08B1FEF79BFEC0
:1019E000BDE81040012204490248FFF77FBE000015
:1019F00000100140E0000020060000200E4810B555
:101A00000C4901604FF4E1314160002181600C22FA
:101A1000C160C0E904128161C161FFF7D1FD08B165
:101A2000FEF779FEBDE81040012204490248FFF7A5
:101A30005DBE00000044004024010020060000209C
:101A4000FEE7FEE770477047FFF7FAB870B592B04F
:101A500030216846FEF7B3FC14210CA8FEF7AFFC5A
:101A60001F480025016841F080510160006800F0C6
:101A7000805011901B48016841F4404101600068AA
:101A8000022400F4404011900120009000040190D5
:101A90008001CDE906400F260896D820CDE909043B
:101AA00004200B906846FFF78BFA08B172B6FEE788
:101AB000FFF762F908B172B6FEE74FF4A050CDE926
:101AC0000E504FF48050CDE90C64109005210CA805
:101AD000FFF78AF9002801D072B6FEE712B070BD98
:101AE00040380240007000400248016841F4700133
:101AF0000160704788ED00E010B5806B0021C18562
:101B0000C184FFF728FC10BD01680C3151E8002F9B
:101B100022F4907241E80023002BF5D101681431C2
:101B200051E8002F22F0010241E80023002BF5D1FB
:101B3000016B012909D101680C3151E8002F22F015
:101B4000100241E80023002BF5D1202180F83E103F
:101B500000210163704708B590F83E10222901D09A
:101B6000022008BD82684FF480539A4201D1016976
:101B700021B1816A9A421BD04AB10AE00268816AA7
:101B80005268C2F308020A80816A891C08E002696F
:101B900072B10268526802F07F020A70816A491CC1
:101BA0008162C18D491E0904090CC18503D019E069
:101BB00002685268F1E70168CA6822F02002CA6030
:101BC0000168CA6822F48072CA6001684A6922F01A
:101BD00001024A61202180F83E10016B012903D0E7
:101BE000FFF79AFD002008BD0021016301680C3158
:101BF00051E8002F22F0100241E80023002BF5D11C
:101C000001680A68D20602D50A6849680091818D88
:101C1000FFF7A0FBE6E7000070B504460068016925
:101C2000E26821F44051114301612169A068E26931
:101C300008436169114308432168CA6849F20C638B
:101C40009A430243CA6020684169A26921F4407145
:101C50001143416131492068884202D030498842AD
:101C600002D1FFF76BF901E0FFF758F9E2690023B1
:101C7000192164253226B2F5004F626828D0A0FBF6
:101C80000101930F9200FEF701FB0146B0FBF5F056
:101C90006FF01802504301EB800006EB0010B0FB20
:101CA000F5F000F0F002B1FBF5F002EB0012B1FB31
:101CB000F5F06FF01803584301EB800006EB0010BD
:101CC000B0FBF5F000F00F0021681044886070BD93
:101CD000A0FB010192185B41FEF7D8FA0146B0FB68
:101CE000F5F00201B1FBF5F06FF01803584301EB7A
:101CF000800006EBC000B0FBF5F000F0F80002EB4E
:101D00004002B1FBF5F0584301EB800006EBC00048
:101D1000B0FBF5F000F00700D6E70000001001402E
:101D20000014014081628285C28500210164222263
:101D300080F83E2080F83C10016921B10168CA6832
:101D400042F48072CA6001684A6942F001024A6145
:101D50000068C16841F02001C160002070472DE992
:101D6000F041984617460E460446069D27E0681C3B
:101D700025D02DB1FEF75EFFA0EB0800A8421ED9CA
:101D800020680C3050E8001F21F4D07140E80012A8
:101D9000002AF5D12068143050E8001F21F001011D
:101DA00040E80012002AF5D1202084F83D0084F894
:101DB0003E00002084F83C000320BDE8F08120684C
:101DC000006836EA000004D00020B842CFD00020DE
:101DD000F3E70120F9E700000148FFF7BDBA000072
:101DE000E00000200148FFF7B7BA000024010020FE
:101DF000FEE70907090E002804DB00F1E02080F867
:101E00000014704700F00F0000F1E02080F8141D6E
:101E100070470000FEF71CFFFFF718FEFFF702FDFA
:101E2000FFF7CAFDFFF7EAFD534F544C544D554E92
:101E30004FF47A78A088010470D52968CA6822F026
:101E40000402CA603168CA6822F00402CA60A1783C
:101E500011B101290DD018E0C0F30B0243464649E9
:101E60004748FFF783FC28680168C9434906FBD44B
:101E70000BE0C0F30B0243463F494248FFF776FCB4
:101E800030680168C9434906FBD4387805280ED26A
:101E9000DFE800F00307091F21000020FEF7F0FA39
:101EA00005E0012100E002210020FEF737FC7878F0
:101EB00019281CD2DFE800F01115173033353739F7
:101EC0003B3D3F41434547494B4D4F515355575972
:101ED0005B000321E8E70421E6E70120FEF7D0FAE2
:101EE00005E0012100E002210120FEF717FCA08897
:101EF000C0F30B012048FEF740FA0020A0802078B4
:101F000060702868C16841F00401C1603068C16830
:101F100041F00401C1608DE70321E5E729E00421D8
:101F2000E2E70521E0E70621DEE70721DCE70821FB
:101F3000DAE70921D8E70A21D6E70B21D4E70C21FB
:101F4000D2E70D21D0E70E21CEE70F21CCE71021FB
:101F5000CAE71121C8E71221C6E71321C4E71421FB
:101F6000C2E71521C0E71621BEE71721BCE71821FB
:101F7000BAE730BF5EE70000180000200000002034
:101F8000E0000020240100204FF04070E1EE100A34
:101F90007047000000000000000001020304060773
:101FA000080900000000010203040000CC1F000823
:101FB0000000002018000000E8010008E41F0008ED
:101FC00018000020B0070000040200080202000010
:101FD00000000000010000001000000000000000F0
:041FE0000024F400E5
:04000005080001AD41
:00000001FF
